:020000040000FA
:100000000C9479080C94AA080C94AA080C94AA08D9
:100010000C94AA080C94AA080C94AA080C94AA0898
:100020000C94AA080C94AA080C94AA080C94AA0888
:100030000C94AA080C94AA080C94AA080C94AA0878
:100040000C94AA080C94AA080C94AA080C94AA0868
:100050000C9476360C94AA080C94AA080C940835D3
:100060000C94AA080C94DE340C94B4340C94AA08B2
:100070000C94AA080C94AA080C94AA080C94AA0838
:100080000C94AA080C94AA080C94AA080C94AA0828
:100090000C948A340C9460340C94AA080C94523555
:1000A0000C94AA080C94AA080C94AA080C94AA0808
:1000B0000C94AA080C94AA080C94AA080C94AA08F8
:1000C0000C94AA080C94AA080C94AA080C94363430
:1000D0000C940C340C94AA080C94E2330C94B833AE
:1000E0000C94AA080C94423F0C943C0A0C94C30A4A
:1000F0000C94C93E0C941D0F0C94920B0C94DB17BE
:100100000C94900D0C948F0D0C945C3F0C949509FD
:100110000C94373E0C94B90D0C948D0D0C948E0BF1
:100120000C94B80B0C94901C0C94DB360C94BB3ED6
:100130000C94A60B0C94581C0C94770F0C94340957
:100140000C94890F0C947D0B0C94AA0B0C94850BCA
:100150000C94C2100C94B40B0C94641D0C94C33E0C
:100160000C94100B0C948E0D0C945F0A0C94AF3E03
:100170000C94880B0C944B0A0C94E60D0C941A1DED
:100180000C94C3100C94EC1C0C949F0D0C94DC3E4E
:100190000C947E3F0C94771C0C94B20D0C94D23EC0
:1001A0000C94C61C0C94810B0C94B53E0C94673FC8
:1001B0000C9482090C94980B0C94C00E0C94A00B18
:1001C0000C94F6090C94790B0C949C0B0C94AE0BCC
:1001D0000C946D0A0C9428270C946D3F0C94B30B6F
:1001E0000C94730B0A546F6F206D616E79206C6FE5
:1001F000636F730A000A43616C6C6261636B28254C
:1002000064290A000A4175746F2050726F6720706C
:100210006F776572206F6666003C4F3E003C482059
:1002200025642025643E003C4F3E003C4820256468
:100230002025642025642025643E003C5920256447
:100240002025642025642025643E003C4F3E003C70
:100250004F3E003C592025642025643E003C51203F
:1002600025642025642025643E003C4F3E003C4F21
:100270003E0000111312000307111D100502070CA8
:1002800011111303070C04070C11121403070C04BB
:1002900007080D00111312000307111D10050107B7
:1002A0000C11011403070C04070A0D0003070407CF
:1002B000080D0004070A0E05070F17100706070CA4
:1002C0001006FF05070F05070F05070F05070F05A8
:1002D000070F05070F05070F04070A0D000507099B
:1002E0000607080D000607080507090D00010705A8
:1002F00007080D0002070607080D000E05070F1777
:10030000100706070C1006FF05070F05070F050766
:100310000F05070F05070F05070F05070F04070A4D
:100320000D001101100705070C1113120004071727
:1003300012800407170E05070F05070F05070F05A5
:10034000070F05070F05070F05070F05070F040720
:100350000BFF111D100505071711110E05070F05DD
:10036000070F05070F05070F05070F05070F0507FF
:100370000F05070F04070C1511120E05070F0507CF
:100380000F05070F05070F05070F05070F05070FD7
:1003900005070F04070C16FF11010E100605070FC5
:1003A00005070F05070F05070F05070F05070F05C1
:1003B000070F04070A0D3C482025642025643E00F1
:1003C0003C592025642025643E00256420202020FF
:1003D0002025782020202025630A000A41646472C9
:1003E000202030782020636861720A000A55736506
:1003F000643D25642C206D61783D25640A000A6304
:1004000061623D25642C2073706565643D25642C14
:10041000206469723D256320006F6666006F6E0080
:100420000A41636B20646961672025530A000A4111
:10043000636B206D61783D256475730A000A416322
:100440006B206D696E3D256475730A000A41636B0C
:10045000206C696D69743D25646D410A000A46721D
:100460006565206D656D6F72793D25640A003C58A5
:100470003E00705B25645D3D25642028307825783A
:10048000290A000A4F70636F64653D25632070611F
:1004900072616D733D25640A004F4646004F4E0061
:1004A00053657474696E67206C6F636F20256420D8
:1004B000462564202553003C232025643E003C4F04
:1004C0003E003C652025642025642025643E0038DC
:1004D000303962353464004D45474100332E302EAB
:1004E00034003C694443432D455820562D25532064
:1004F0002F202553202F20255320472D25533E0004
:100500003C7025643E003C612025643E003C632035
:1005100043757272656E744D41494E2025642043C7
:10052000204D696C6C6920302025642031202564C1
:100530003E003C70303E003C7031204A4F494E3EF8
:10054000003C7025632050524F473E003C702563AD
:10055000204D41494E3E003C7025633E0070616372
:100560006B65745B25645D3D2564202830782578B3
:10057000290A003C4F3E003C54202564202564207D
:1005800025643E000A50415253494E473A25730AAA
:10059000003C7225647C25647C25642025643E0033
:1005A0003C7225647C25647C2564202564202564B8
:1005B0003E003C762025642025642025643E003CD6
:1005C000762025642025643E003C7225647C2564E9
:1005D0007C25642025643E003C722025643E003C5E
:1005E000772025643E000A57617665666F726D203C
:1005F0006163637572616379206C696D69746564A8
:10060000206279207369676E616C2070696E206367
:100610006F6E66696775726174696F6E2E000A5736
:10062000617665666F726D207573696E67205057CD
:100630004D2070696E7320666F72206163637572FE
:100640006163792E0050524F47004D41494E000AD8
:100650002A2A2A20255320545241434B20504F57D9
:1006600045522052455345542064656C61793D25BF
:1006700064202A2A2A0A0050524F47004D41494E11
:10068000000A2A2A2A20255320545241434B205045
:100690004F574552204F5645524C4F4144206375A9
:1006A0007272656E743D2564206D61783D2564200D
:1006B000206F666674696D653D2564202A2A2A0AC2
:1006C0000050524F47004D41494E000A2A2A2A2025
:1006D0002553204641554C542050494E2041435407
:1006E000495645202D204F5645524C4F4144202A13
:1006F0002A2A0A0050524F47004D41494E000A2A0B
:100700002A2A20434F4D4D4F4E204641554C5420F0
:1007100050494E20414354495645202D20544F47BF
:10072000474C454420504F574552206F6E2025536B
:10073000202A2A2A0A000A52696E67537472656178
:100740006D2825642920636F6D6D697428256429DF
:10075000204F564552464C4F570A003C25632025F2
:10076000643E000A000A4C434425643A005C005C85
:1007700074005C30005C72005C6E000A49324320F9
:10078000536572766F2064657669636520307825DD
:1007900078204E6F7420466F756E642025640A00C1
:1007A0000A536574536572766F206572726F72209A
:1007B00025640A000A536574536572766F202564B8
:1007C0002025640A00576966693A2044524F505008
:1007D000494E472043495053454E443D25642C25FE
:1007E000640A000A2B2B2B2B2B2B205769666920C0
:1007F000436F6E6E6374696F6E20666F72636564BB
:10080000206F6E202B2B2B2B2B2B2B2B0A004154D4
:100810002B25730D0A0000002100240027002A0068
:100820002D003000330001010000040107010A011E
:1008300038303962353464004D45474100332E303D
:100840002E34003C694443432D455820562D2553F2
:10085000202F202553202F20255320472D25533E80
:100860000A005265616479005354414E4441524438
:100870005F4D4F544F525F534849454C44005374A9
:10088000617274696E6700332E302E340044434326
:100890002B2B20455820762553000A212120616307
:1008A0006B4F70202564204641554C542121000A8D
:1008B0005625642063763D2564206269743D256475
:1008C000000A56422063763D25642076616C75658A
:1008D0003D2564000A57422063763D2564207661F9
:1008E0006C75653D2564000A5725642063763D25B7
:1008F00064206269743D2564000A4175746F20505C
:10090000726F6720706F776572206F6E0000000A4B
:100910000B02090C0D0E0807030401000000000083
:1009200000000000000000000000000000000000C7
:100930000000000000000000001211100000000084
:1009400000000000000000000000000000000000A7
:100950000000003C25632025643E000A427566665F
:10096000657220666C757368000A57696669204F66
:10097000564552464C4F572049474E4F52494E47D5
:100980003A000A5769666920696E626F756E642065
:10099000646174612825643A2564293A005B584DE6
:1009A00049542025645D004D256341256325643C41
:1009B0003B3E5625640A004D256341256325643C72
:1009C0003B3E5625640A004D256341256325643C62
:1009D0003B3E5225640A004D256341256325643C56
:1009E0003B3E5225640A004D256341256325643C46
:1009F0003B3E5625640A004D256341256325643C32
:100A00003B3E46256425640A004D25634125632548
:100A1000643C3B3E5625640A004D25632D25632525
:100A2000643C3B3E0A00484D4D6178206C6F636F1B
:100A30007320282564292065786365656465642CC6
:100A4000202564206E6F74206164646564210A004F
:100A50004D256341256325643C3B3E73310A004DBF
:100A6000256341256325643C3B3E5225640A004DC5
:100A7000256341256325643C3B3E5625640A004DB1
:100A800025634125633C3B3E46256425640A004DB1
:100A900025632B256325643C3B3E0A00484D4C658D
:100AA0006E6774682027256327206E6F7420766137
:100AB0006C696420666F72202564210A00484D41EC
:100AC00064647265737320273027206E6F742073FF
:100AD0007570706F72746564210A00256C20576907
:100AE0005468726F74746C65282564292051756987
:100AF000740A004D25632D256325643C3B3E0A00A6
:100B00002A25640A0050504125780A005054545D4B
:100B10005C5B5475726E6F7574737D7C7B547572FB
:100B20006E6F75745D5C5B436C6F7365647D7C7B1D
:100B3000325D5C5B5468726F776E7D7C7B340A003B
:100B400038303962353464004D45474100332E302A
:100B50002E340048744443432D4558207625532CA9
:100B60002025532C2025532C2025530A00564E3285
:100B70002E300A48544443432D45580A524C300AFB
:100B8000002A25640A00505441256325640A004860
:100B90006D5475726E6F7574202564206372656183
:100BA0007465640A0050504125780A000A005D5CB3
:100BB0005B25647D7C7B25647D7C7B2563005054B4
:100BC0004C0050504125780A000A256C2057695482
:100BD00068726F74746C65282564293C2D5B2565EB
:100BE0005D0A000A256C204372656174696E672096
:100BF0006E65772057695468726F74746C652066EF
:100C00006F7220636C69656E742025640A00256C20
:100C100020206553746F7070696E67206361622075
:100C200025640A000A0A256C2057695468726F749B
:100C3000746C6528256429206553746F70282564B9
:100C400073292074696D656F75742C2064726F70E0
:100C500020636F6E6E656374696F6E0A0025650AA6
:100C6000000A5769666920455845433A20256420A3
:100C700025643A0041542B43495053454E443D2589
:100C8000642C25640D0A000A576946693A205B5BAB
:100C900043495053454E443D25642C25645D5D0019
:100CA0000A41434B20626173656C696E653D256442
:100CB0002F25646D41205468726573686F6C643DC4
:100CC00025642F25646D41204475726174696F6ECF
:100CD0003A2025647573203C3D2070756C73652047
:100CE0003C3D2025647573004E4F2D41434B004120
:100CF000434B000A25532061667465722025646D9C
:100D000053206D61783D25642F25646D41207075F9
:100D10006C73653D2564755300504F52543D2564F6
:100D20000A0025730049502C220041542B434946A8
:100D300053520D0A0041542B4349505345525645D6
:100D4000523D312C25640D0A0041542B4349504D2E
:100D500055583D310D0A0041542B434950534552DB
:100D60005645523D300D0A0041542B4349505245DF
:100D700043564D4F44453D300D0A000A5761726E8F
:100D8000696E673A2053657474696E67204150201C
:100D90005353494420616E642070617373776F729E
:100DA00064206661696C65640A0041542B435753A3
:100DB000415025733D2244434345585F2573222CFF
:100DC000222553222C25642C340D0A0041542B4338
:100DD0005753415025733D2244434345585F257383
:100DE000222C22504153535F2573222C25642C342E
:100DF0000D0A002B43494653523A41504D41432C72
:100E0000220041542B43494653520D0A0041542BB2
:100E100043574D4F44453D320D0A00302E302E30A1
:100E20002E30002B43494653523A53544149500007
:100E300041542B43494653520D0A0041542B43570A
:100E40004A41505F4355523D222553222C222553BF
:100E5000220D0A0041542B4357484F53544E414DE5
:100E6000453D222553220D0A0041542B43574A4148
:100E7000503D222553222C222553220D0A00302ECC
:100E8000302E302E30002B43494653523A535441B2
:100E900049500041542B43494653520D0A004154D6
:100EA0002B43574A41503F0D0A0041542B43574DA5
:100EB0004F44453D310D0A0041542B474D520D0A18
:100EC00000415445310D0A0041540D0A000A507288
:100ED00065636F6E666967757265642057696669D8
:100EE00020616C72656164792072756E6E696E67DF
:100EF000207769746820646174612077616974691E
:100F00006E670A002B49504400646363657800599A
:100F10006F7572206E6574776F726B20706173737A
:100F2000776400596F7572206E6574776F726B20ED
:100F30006E616D6500444953434F4E4E45435445E1
:100F40004400434F4E4E4543544544000A2B2B204A
:100F500057696669205365747570202553202B2BC3
:100F60000A00415445300D0A000A2B2B20576966B0
:100F700069205365747570204E4F204154202B2BEF
:100F80000A000A2B2B205769666920536574757017
:100F900020547279202564202B2B0A000D0A4F4B18
:100FA0000D0A000A54494D454F5554206166746539
:100FB000722025646D730A000A466F756E6420699D
:100FC0006E2025646D73002563000A5769666920E9
:100FD000436865636B3A205B25455D0020706F7246
:100FE000743D307825782C20696E6F757470696E49
:100FF0003D307825782C206973696E7075743D25B5
:10100000642C206D61736B3D307825780A000102F5
:10101000102020080810204010204080020102010A
:1010200008040201010204081020408080402010C2
:10103000080402018004020180402010080402011B
:101040000804020101020408102040800102040883
:101050001020408000002200250028002B002E00D8
:101060003100340002010000050108010B010000FD
:1010700020002300260029002C002F003200000150
:10108000000003010601090105050505070508081B
:101090000808020202020A0A080804040404010102
:1010A0000101010101010303030303030303040717
:1010B00007070C0C0C0C0C0C0C0C020202020606AE
:1010C0000606060606060B0B0B0B0B0B0B0B0A4D4D
:1010D0006F746F724472697665722025532050696F
:1010E0006E3D25642C0053494700504F5745520030
:1010F000DB3611241FBECFEFD1E2DEBFCDBF00E053
:101100000CBF12E0A0E0B2E0EEEFF8E900E00BBFA8
:1011100002C007900D92AA38B107D9F728E0AAE8D3
:10112000B2E001C01D92A837B207E1F718E0C9E7A5
:10113000D8E000E006C021970109802FFE010E943F
:101140001D4CC837D10780E00807A9F70E94A237D5
:101150000C947D4C0C9400002091DF04211122C0DE
:1011600021E02093DF049093DE048093DD0450930C
:10117000DC044093DB044115510551F0FA01A785C9
:10118000B08983859485A80FB91F8C918093DA0468
:1011900084E1FB01A6ECB4E001900D928A95E1F7A1
:1011A00081E0089580E00895CF92DF92EF92FF9260
:1011B000CF93DF93EC016A017B01E889F98982E032
:1011C0008083C11481EED806E104F104A1F060E04F
:1011D00079E08DE390E0A70196010E94DC4B21505D
:1011E000310941095109569547953795279521159C
:1011F00080E1380798F0E889F989108260E874E89E
:101200008EE190E0A70196010E94DC4B215031094C
:10121000410951095695479537952795EC85FD85E8
:101220003083EE85FF852083188EEC89FD8986E06A
:101230008083EA89FB89808180618083EA89FB89D8
:10124000808188608083EA89FB89808180688083CF
:10125000EA89FB8980818F7D8083DF91CF91FF9028
:10126000EF90DF90CF900895CF93DF93EC01072E9E
:10127000000C880B990B0E94A14A2E8D3F8D48A12E
:1012800059A10E94564B0E94704ACB01DF91CF9129
:1012900008952FB7F8946091BE047091BF048091B7
:1012A000C0049091C1042FBF08958091B9078111A6
:1012B00008951092E9071092E8071092F207109231
:1012C000F3071092F4071092F5071092F1071092AD
:1012D000F0071092E3072FB7F8948091BE04909125
:1012E000BF04A091C004B091C1042FBF8093EA074E
:1012F0009093EB07A093EC07B093ED0781E0809308
:10130000E2070895CF93DF93EC0190E080E00E9424
:101310009F4A2E8D3F8D48A159A10E94F7490E94F6
:10132000694ACB01DF91CF910895FC0195819633F5
:1013300008F0965320917B00892F8870277F822B9D
:1013400080937B009770906490937C0080917A00EA
:10135000806480937A0080917A0086FDFCCF809132
:1013600078009091790026812F37A1F0A08DB18D62
:101370002C91328D232371F4A085B1852C91328577
:10138000232341F0009721F09195819591090895CB
:101390008FEF9FEF0895DC01ED91FC910190F081BA
:1013A000E02D1994EF92FF920F931F93CF93DF9349
:1013B0008C017B01D0E0C0E0F701EC0FFD1F6491D0
:1013C000662361F0D801ED91FC910190F081E02D50
:1013D000C8011995892B11F02196EECFCE01DF912E
:1013E000CF911F910F91FF90EF900895AF92BF9210
:1013F000CF92DF92EF92FF920F931F93CF93DF93E1
:101400006C017B018B01040F151FEB015E01AE180F
:10141000BF08C017D10759F06991D601ED91FC9131
:101420000190F081E02DC6011995892B79F7C5014E
:10143000DF91CF911F910F91FF90EF90DF90CF90B0
:10144000BF90AF900895FC01A089B1898C91A689C5
:10145000B78982FD0FC09C91818D8F5F8F73228D24
:10146000821749F0A18DAE0FBF2FB11D5D969C93E1
:10147000818F08958C910895FC01538D448D252F03
:1014800030E0842F90E0821B930B541710F0CF961E
:10149000089501970895FC01918D828D981761F050
:1014A000A28DAE0FBF2FB11D5D968C91928D9F5F67
:1014B0009F73928F90E008958FEF9FEF0895FC0146
:1014C000918D828D981731F0828DE80FF11D858DF9
:1014D00090E008958FEF9FEF0895FC01918D228D8C
:1014E000892F90E0805C9F4F821B91098F73992711
:1014F000089580E395E00E946D0A21E0892B09F4AC
:1015000020E0822F08958DEC95E00E946D0A21E085
:10151000892B09F420E0822F08958AE696E00E9444
:101520006D0A21E0892B09F420E0822F089587E0DD
:1015300097E00E946D0A21E0892B09F420E0822FB8
:101540000895FC01A48DA80FB92FB11DA35ABF4F58
:101550002C91848D90E001968F739927848FA689B2
:10156000B7892C93A089B1898C91837080648C9306
:10157000938D848D981306C00288F389E02D8081B5
:101580008F7D80830895EF92FF920F931F93CF93E7
:10159000DF93EC0181E0888F9B8D8C8D98131AC0AE
:1015A000E889F989808185FF15C09FB7F894EE8995
:1015B000FF896083E889F9898081837080648083F2
:1015C0009FBF81E090E0DF91CF911F910F91FF903D
:1015D000EF900895F62E0B8D10E00F5F1F4F0F73E5
:1015E0001127E02E8C8D8E110CC00FB607FCFACFA0
:1015F000E889F989808185FFF5CFCE010E94A10A93
:10160000F1CFEB8DEC0FFD2FF11DE35AFF4FF08270
:101610009FB7F8940B8FEA89FB8980818062CFCFD6
:10162000CF93DF93EC01888D8823B9F0AA89BB8919
:10163000E889F9898C9185FD03C0808186FD0DC004
:101640000FB607FCF7CF8C9185FFF2CF808185FF25
:10165000EDCFCE010E94A10AE9CFDF91CF9108958D
:1016600080E090E0892B29F00E94970A81110E9466
:10167000000080E090E0892B29F00E948D0A811102
:101680000E94000080E090E0892B29F00E94830AEC
:1016900081110E94000080E090E0892B29F00E94D7
:1016A000790A81110C94000008958150823108F06C
:1016B0005AC0E82FF0E08827EF59F44F8F4F0C9471
:1016C0001D4C810B850B730B790B7D0BB30B880BBA
:1016D0008E0B920B980B9C0BA00BA60BAA0BB30BBB
:1016E000AE0BB40BB80B809180008F778093800095
:1016F0000895809180008F7DF9CF80918000877F51
:10170000F5CF84B58F7784BD089584B58F7DFBCFE9
:101710008091B0008F778093B00008958091B000E1
:101720008F7DF9CF809190008F77809390000895FE
:10173000809190008F7DF9CF80919000877FF5CFC9
:101740008091A0008F778093A00008958091A000E1
:101750008F7DF9CF8091A000877FF5CF8091200108
:101760008F77809320010895809120018F7DF9CF9C
:1017700080912001877FF5CF1F93CF93DF93282F90
:1017800030E0F901E35FF64F8491F901E25FFF4E2B
:10179000D491F901E857FF4EC491CC23A9F0162F3C
:1017A00081110E94550BEC2FF0E0EE0FFF1FEC5A59
:1017B000FF4EA591B4918FB7F894EC91111108C028
:1017C000D095DE23DC938FBFDF91CF911F910895D9
:1017D000DE2BF8CFCF93DF9390E0FC01E25FFF4E6A
:1017E000249188579F4EFC0184918823D1F090E08A
:1017F000880F991FFC01EA5EF74FA591B491FC0197
:10180000EC5AFF4EC591D49161110EC09FB7F89468
:101810008C91E22FE0958E238C932881E223E8833C
:101820009FBFDF91CF9108958FB7F894EC91E22B91
:10183000EC938FBFF6CF3FB7F8948091020390915D
:101840000303A0910403B091050326B5A89B05C02E
:101850002F3F19F00196A11DB11D3FBFBA2FA92F2F
:10186000982F8827BC01CD01620F711D811D911D2C
:1018700042E0660F771F881F991F4A95D1F7089598
:101880002091DC02260F3327331F21323105ECF47F
:1018900020910605FC0190E080E0243069F082E0B0
:1018A0000895A091DC022191AC0146545D4FA40F34
:1018B000B52FB11D2C930196861798F38091DC0209
:1018C000680F6093DC0280E0089581E00895109233
:1018D000060581E0809305051092E00461E084E153
:1018E0000E94BC0B61E085E10E94BC0BE9EBF0E0DB
:1018F00080818E7F808380818D7F808388E4809348
:10190000B80085E48093BC000895CF93DF9391E005
:101910009093B9028823B9F0C091B800D091BA0071
:101920008091BC008A7B8093BC0060E084E10E94CF
:10193000BC0B60E085E10E94BC0B0E94670CD09359
:10194000BA00C093B800DF91CF910895CF92DF9293
:10195000EF92FF920F931F93CF93DF93D0912F05B8
:1019600081E0D13208F09CC0C0912E050E941B0C72
:101970006B017C018091060581116CC082E080932F
:10198000060581E0809305058FEF80930405109292
:101990000305D0930205AEE0B5E0E2EEF4E080E0AE
:1019A000D8138DC01092E1048091E104CC0FC82BB4
:1019B000C093E1048091E004813009F084C010926A
:1019C000E0040E941B0C6B017C018091E104809378
:1019D000BB008091080590910905A0910A05B0917E
:1019E0000B05892B8A2B8B2BA1F00E941B0C0091DD
:1019F00008051091090520910A0530910B056C1915
:101A00007D098E099F09061717072807390708F46B
:101A100042C08091BC0083FDD8CF85EC8093BC0090
:101A20000E941B0C6B017C0180910605823009F439
:101A30004CC0809104058F3F09F469C08091040572
:101A4000803209F466C080910405803309F463C0D4
:101A500084E026C08091080590910905A0910A05AF
:101A6000B0910B05892B8A2B8B2B09F483CF0E9415
:101A70001B0C009108051091090520910A05309171
:101A80000B056C197D098E099F0906171707280792
:101A9000390708F06FCF809107050E94850C85E01B
:101AA00010920D0510922F0510920C05DF91CF9129
:101AB0001F910F91FF90EF90DF90CF9008959D912F
:101AC00091938F5F6DCF85EEA9CF8091080590919E
:101AD0000905A0910A05B0910B05892B8A2B8B2B48
:101AE00009F4A2CF0E941B0C009108051091090572
:101AF00020910A0530910B056C197D098E099F090B
:101B0000061717072807390708F08ECFC4CF80E0E3
:101B1000C7CF82E0C5CF83E0C3CF0895089508956D
:101B2000E091B8028091B702E81730F4F0E0E9568E
:101B3000FD4F808190E008958FEF9FEF0895909181
:101B4000B8028091B7022FEF3FEF981748F4E92FC2
:101B5000F0E0E956FD4F208130E09F5F9093B8029E
:101B6000C90108958091B7029091B802891B990B21
:101B70000895CF92DF92EF92FF920F931F93CF932E
:101B8000DF937C01CB018A0120910C05222389F08F
:101B9000EB016B01C40ED51ECC15DD0569F0699112
:101BA000D701ED91FC910190F081E02DC7011995CD
:101BB000F3CF642F0E94400CC801DF91CF911F9199
:101BC0000F91FF90EF90DF90CF900895CF93DF9328
:101BD0001F92CDB7DEB7698320910C052223F9F05F
:101BE00020912F05203258F021E030E0FC013383B2
:101BF000228390E080E00F90DF91CF910895809153
:101C00000D05E82FF0E0E25FFA4F998190838F5F36
:101C100080930D0580932F0581E090E0ECCF61E08B
:101C2000CE0101960E94400CF7CFFC0190E080E0CD
:101C30006AE0219130ED320F3A3058F4689FA001EC
:101C4000699F500D11242053330BC901840F951F38
:101C5000F0CF0895E091B804F091B904E817F907BE
:101C600041F4808191819093B9048093B8040895E0
:101C7000F901309751F02081318128173907C1F7D8
:101C8000DC018D919C91918380830895E091B10452
:101C9000F091B204309749F020813181281739073B
:101CA00021F00680F781E02DF5CFCF010895009750
:101CB000E9F06A3071F034F4662391F0693099F0FC
:101CC0000C94CB096D3049F06C35D1F76DE677E0B7
:101CD00002C068E777E00C94D20965E777E0FBCFB4
:101CE00062E777E0F8CF6FE677E0F5CF0895682FE9
:101CF00087E097E00C94570ECF93DF93EC018E8131
:101D00009F819C878B87E881F9810190F081E02D8C
:101D1000CE011995E881F9810190F081E02D60E014
:101D2000CE011995E881F9810190F081E02D60E004
:101D3000CE0119951E861D86DF91CF910895FC0175
:101D400020853185868197812817390719F4828586
:101D5000882399F0A785B089A20FB31F8C912F5FBC
:101D60003F4F31872087448155812417350711F46F
:101D700011861086128690E008958FEF9FEF0895E8
:101D8000FC01828581111CC0A785B089868197815D
:101D9000A80FB91F6C9386819781019697838683DC
:101DA000248135818217930711F4178216822681C8
:101DB0003781808591852817390729F481E082874A
:101DC00090E080E0089585859685019696878587C1
:101DD00081E090E00895CF93C42F91E090930C059B
:101DE00080932E0510920D0510922F0584EA97E03E
:101DF0000E94E60D6C2F84EA97E00E94E60DCF91D9
:101E00000C94A60CCF93DF93EC01E881F981048058
:101E1000F581E02D61E01995E881F9810480F58173
:101E2000E02D60E0CE011995E885F98580819A85DD
:101E3000892B8083DF91CF910895FC0180919202DC
:101E40008823B9F183818B3081F480918000806890
:101E50008093800080E094E0611102C090E080E017
:101E6000909389008093880008958C3081F480914C
:101E7000800080628093800080E094E0611102C065
:101E800090E080E090938B0080938A0008958D30DD
:101E900009F58091800088608093800080E094E064
:101EA000611102C090E080E090938D0080938C00DF
:101EB0000895A485B5858C91662369F09685892B54
:101EC0008C93848D882331F0A089B1898C9193897A
:101ED00089238C930895978589238C93848D8823F7
:101EE000C9F3A089B1898C919289892BF2CFFC0129
:101EF00087818F3749F0A489B589858D861729F0A8
:101F00008C919689892B8C9308958C91978989233C
:101F1000FACFFC0161110C94020FA085B1859C9150
:101F2000838589238C930895CF93DF93FC0131E15E
:101F3000C8E0D0E021E084A1811119C08785082E76
:101F4000000C990B389FD001399FB00D1124AE0FB2
:101F5000BF1F95964C9141110AC00196BE010E9487
:101F6000C84B878796859813E9CF24A3E4CFDF91E8
:101F7000CF910895FC01453040F580818111FDCF5E
:101F800080E04423B9F0DB018C91828B413091F0E9
:101F900011969C9111978927938B423059F0129694
:101FA0009C9112978927948B433021F013969C9132
:101FB0008927958BDF01A40FB11D52968C934F5F3B
:101FC000478B208F81E0808311820895FC01678F09
:101FD000A481B581ED91FC9111970190F081E02DE4
:101FE0008FE0E938F80779F4613051F01896ED91F7
:101FF000FC91199780811B969C9189238083089579
:10200000CD010C94020F6170CD011994FC01878DF4
:1020100008958091DB049091DC04009749F0609171
:10202000DA040E947C0E8091DB049091DC04089518
:102030008091DD049091DE040895CF93DF931F9289
:102040001F92CDB7DEB79C01317028173907F9F41C
:10205000862F837068131BC0C9018F73992780581E
:102060008983660F640F86E0359527958A95E1F799
:102070002295207F620F48EF64276A8324E042E0C4
:10208000BE016F5F7F4F8AEF97E00E94BA0F0F90FB
:102090000F90DF91CF910895CF93DF9300D01F92DF
:1020A000CDB7DEB79C0190E02038310524F0832FB6
:1020B000806C898391E0E1E0E90FA1E0B0E0AC0F32
:1020C000BD1FA90FB11D2C93662351F021E030E014
:1020D0002C0F3D1F2E0F311DF9016083E2E0E90F47
:1020E000A1E0B0E0AC0FBD1FAE0FB11D4C9341E0BD
:1020F0004E0F23E0BE016F5F7F4F8AEF97E00E9493
:10210000BA0F0F900F900F900F90DF91CF9108951D
:10211000CF93DF9300D01F92CDB7DEB740E0803879
:10212000910520F0292F206C298341E0E1E0F0E0C7
:10213000EC0FFD1FE40FF11D8083E1E0E40F81E06F
:1021400090E08C0F9D1F8E0F911DFC018FE380830B
:10215000E2E0E40F81E090E08C0F9D1F8E0F911D57
:10216000FC0160834D5F20E0BE016F5F7F4F8AEF0F
:1021700097E00E94BA0F0F900F900F900F90DF9191
:10218000CF910895089590E080E00895CF93DF9374
:10219000EC010E94460E009799F468E070E081E03F
:1021A00090E00E94394C2091B1043091B204FC01BE
:1021B000378326839093B2048093B104D183C08384
:1021C0002091B3043091B4042F5F3F4F3093B40497
:1021D0002093B304DF91CF910895AF92BF92CF9235
:1021E000DF92FF920F931F93CF93DF935C01F62E44
:1021F0006A0100911B0310911C03E80101151105F0
:1022000059F568E070E081E090E00E94394CEC0103
:1022100090931C0380931B03209799F0B982A882A6
:10222000FA8281E0C114D10409F480E08B831C821E
:102230001D8260E08F2D0E94EA0B6C2D8F2D0E9475
:10224000BC0BCE01DF91CF911F910F91FF90DF90DA
:10225000CF90BF90AF90089588819981A816B90654
:10226000E9F20E80DF81C02D2097B1F7F801868159
:102270009781009759F468E070E081E090E00E9457
:10228000394CEC01F80197838683C6CF8C01EECFE1
:102290008F929F92AF92BF92DF92EF92FF920F9335
:1022A0001F93CF93DF935C01D62E8A014901E09002
:1022B0009302F0909402E701E114F10409F568E05B
:1022C00070E081E090E00E94394CEC019093940220
:1022D00080939302209739F0A982DA820B838A9443
:1022E000892849F11882CE01DF91CF911F910F917A
:1022F000FF90EF90DF90BF90AF909F908F900895E8
:1023000089818A151B0441F30C80DD81C02D209743
:10231000B9F7F70184819581009759F468E070E07E
:1023200081E090E00E94394CEC01F70195838483B1
:10233000D1CF7C01EECF60E001FF06C0B8017595FA
:1023400067957595679561706883017060278D2D1D
:102350000E94BC0B61E08A810E94EA0BC4CFFB01A2
:1023600001900020E9F73197AF01461B570BDC01C4
:10237000ED91FC910280F381E02D19948F929F9250
:10238000AF92BF92EF92FF920F931F93CF93DF9381
:10239000CDB7DEB7A1970FB6F894DEBF0FBECDBFA5
:1023A0007C01FA01CB0119A2223008F42AE08E0147
:1023B0000F5D1F4F822E912CB12CA12CBF01A501C6
:1023C00094010E94DC4BF901CA016A300CF5605D92
:1023D000D8016E938D01232B242B252B79F790E0C8
:1023E00080E0109721F0BD01C7010E94AF11A196B6
:1023F0000FB6F894DEBF0FBECDBFDF91CF911F9116
:102400000F91FF90EF90BF90AF909F908F900895A5
:10241000695CDECFCF92DF92EF92FF920F931F9312
:10242000CF93DF932A30310501F52AE077FF1DC0F5
:102430006A017B01EC016DE20E94CB098C0144270B
:102440005527BA014C195D096E097F092AE0CE01B2
:102450000E94BE11800F911FDF91CF911F910F91AC
:10246000FF90EF90DF90CF900895DF91CF911F9173
:102470000F91FF90EF90DF90CF900C94BE114F9290
:102480005F926F927F928F929F92AF92BF92CF9204
:10249000DF92EF92FF920F93CF93DF934C016A018B
:1024A0007B01A22E211116C02AE030E0B701A6015F
:1024B000C401DF91CF910F91FF90EF90DF90CF900B
:1024C000BF90AF909F908F907F906F905F904F9054
:1024D0000C940A1291E080E01C141D041E041F04D9
:1024E0000CF490E0C92FD82FA70196018AE0482E5E
:1024F000512C612C712C211531054105510541F0FC
:10250000CA01B901A30192010E94FE4B2196F3CFAB
:10251000002339F02AE030E0B701A601C4010E948F
:102520000A12B12CCA15DB0534F460E2C4010E9422
:10253000CB092196F7CF002309F4B6CFDF91CF91D5
:102540000F91FF90EF90DF90CF90BF90AF909F9052
:102550008F907F906F905F904F9008952F923F9251
:102560004F925F926F927F928F929F92AF92BF92A3
:10257000CF92DF92EF92FF920F931F93CF93DF934F
:10258000EC011B015A01D12CC12C1AE0F101EC0D18
:10259000FD1D6491662309F47BC100E020E06532F3
:1025A00029F0CE010E94CB0916C001E08FEFC81AB6
:1025B000D80AF101EC0DFD1DE491E33609F489C060
:1025C00050F5EA3350F4E03308F05CC1E53209F429
:1025D0007EC0ED3251F3750185C0E33509F4A8C022
:1025E000E23609F4C9C0E534B1F77501F2E0EF0E47
:1025F000F11C209709F476C0F501A080B180F501A7
:102600000491602FCE010E94570EFFEFAF1ABF0A50
:102610000111F5CF67C0EC3609F4A4C008F042C040
:10262000E53609F472C008F48EC0E636A1F67501ED
:10263000F4E0EF0EF11CF50180809180A280B38060
:10264000A5019401C501B4010E94C34B64E672E088
:10265000811157C024013501E89477F82FEF3FEF3F
:102660004FE75FE7C301B2010E94C34B81110CC069
:102670002FEF3FEF4FE75FE7C301B2010E94F2493E
:1026800068E672E01816ECF12FEF3FEF4FE75FE4DA
:10269000C501B4010E94514B18160CF08AC06CE6BB
:1026A00072E02FC0E33719F1E83709F475C0EF364F
:1026B00009F091CF7501F2E0EF0EF11CF5014081B8
:1026C0005181052E000C660B770B28E061C065E296
:1026D00068CF7501E2E0EE0EF11CF5016081CE01DC
:1026E0000E94CB09FFEFCF1ADF0A57014FCF7501C8
:1026F000F2E0EF0EF11CF501608171816115710549
:1027000089F3CE010E94AF11EDCF7501F2E0EF0E1B
:10271000F11C209739F3F501A080B180F5010191FA
:102720005F01602FCE010E94570E0111F7CFDACF63
:10273000750182E0E80EF11CF50160817181CE0126
:102740000E94D209CFCF7501F2E0EF0EF11CF50126
:1027500040815181052E000C660B770BCE010E9443
:102760003F12C0CF7501F4E0EF0EF11CF50140817E
:10277000518162817381F2CF7501F2E0EF0EF11C9D
:10278000F50140815181052E000C660B770B22E08C
:10279000CE010E94BE11A6CF7501F2E0EF0EF11C32
:1027A000F50140815181052E000C660B770B20E16D
:1027B000EFCF2FEF3FEF4FE75FECC501B4010E9471
:1027C000F24987FD6CCF20E030E0A901C501B401DA
:1027D0000E94F24987FF08C06DE2CE010E94CB093A
:1027E000B7FAB094B7F8B0942AE037ED43EA5BE368
:1027F000C501B4010E9486492B013C010E94704A28
:102800004B015C010E949F4A9B01AC01C301B201D4
:102810000E9485492B013C012AE0B501A401CE01AB
:102820000E94BE116EE2CE010E94CB0920E030E092
:1028300040E251E4C301B2010E94564B2B013C011E
:102840000E94704A4B01B12CA12C2AE0B501A401D1
:10285000CE010E94BE11C501B4010E949F4A9B0196
:10286000AC01C301B2010E94854920E030E040E2A2
:1028700051E40E94564B0E94704AAB0170E060E048
:102880002AE086CFE053219FE00D11242E2F8ECE1B
:10289000DF91CF911F910F91FF90EF90DF90CF903C
:1028A000BF90AF909F908F907F906F905F904F9070
:1028B0003F902F90089585ED8093BC00809108058E
:1028C00090910905A0910A05B0910B050796A11DED
:1028D000B11D23E0B695A795979587952A95D1F7D1
:1028E0002091BC0024FD03C010920605089540917C
:1028F00008055091090560910A0570910B05452B5B
:10290000462B472B69F30097A105B10541F025E35C
:102910002A95F1F700000197A109B109E1CF809153
:1029200007050C94850CCF93DF93CDB7DEB7AE01CE
:10293000465F5F4F688579858E819F810E94AE12C8
:10294000DF91CF910895EF92FF920F931F93CF9352
:10295000DF938C01C0911B03D0911C038BE5E82E03
:1029600087E0F82E209709F101151105C1F0988133
:1029700029818C81811117C081E72F939F931F922A
:102980008F93FF92EF921F930F930E9493148DB732
:102990009EB708960FB6F8949EBF0FBE8DBF0E80EF
:1029A000DF81C02DDFCF81E5E8CFDF91CF911F918F
:1029B0000F91FF90EF900895CF93DF93CDB7DEB7DF
:1029C000AE014A5F5F4FFA0161917191AF0187E0FB
:1029D00097E00E94AE12DF91CF910895AF92BF921F
:1029E000CF92DF92EF92FF920F931F93CF93DF93DB
:1029F000EC01C42ED22E84E392E0998388836A830B
:102A0000062F10E01F926F938AEE90E19F938F93B1
:102A10008EECA82E80E1B82EBF92AF920E94DC14FB
:102A2000F801E857FF4E8491E82FF0E0EE0FFF1F0A
:102A3000EC5AFF4E2591349128873987025F1F4E4B
:102A4000F80104910A87902F90959B871F920F930E
:102A50001F921F923F932F931F928F932CEDE22E84
:102A60002FE0F22EFF92EF920E94DC1461E08A8147
:102A70000E94EA0BCB820C2D10E01F92CF9286EEC3
:102A800090E19F938F93BF92AF920E94DC14F80164
:102A9000E857FF4E8491E82FF0E0EE0FFF1FEC5A4D
:102AA000FF4E259134912C873D87025F1F4EF80120
:102AB00004910E87902F90959F871F920F931F92DE
:102AC0001F923F932F931F928F93FF92EF920E943A
:102AD000DC148DB79EB780960FB6F8949EBF0FBEDC
:102AE0008DBF61E08B810E94EA0B1FE71C831C8E67
:102AF0001F83DD8260E08D2D0E94EA0B1E8389E238
:102B00009CE5AFE3B0E48E8F9F8FA8A3B9A380EDBF
:102B100097E09BA38AA38CE992E09DA38CA3DF910D
:102B2000CF911F910F91FF90EF90DF90CF90BF90CA
:102B3000AF9008952F923F924F925F926F927F9243
:102B40008F929F92AF92BF92CF92DF92EF92FF92BD
:102B50000F931F93CF93DF9300D0CDB7DEB73C0127
:102B6000562E472E49830E9449096B017C014F92E2
:102B70005F928AEC9FE09F938F930E94DC140F90EA
:102B80000F900F900F905A824B824301B12CA12CD1
:102B900087EC282E8FE0382E0E9449096C197D0998
:102BA0008E099F09681579058A059B0508F06DC097
:102BB0008091C4049091C504DC01ED91FC910084E6
:102BC000F185E02D1995892B39F38091C4049091FA
:102BD000C504DC01ED91FC910284F385E02D19958B
:102BE0008C01B981BB2309F445C00E94770EEA81AC
:102BF000FB8184918017110611F05A824B82EA8181
:102C0000FB8184918017110699F63196FB83EA8344
:102C100084918111CDCF0E944909DC01CB018C192F
:102C20009D09AE09BF09BF93AF939F938F9388EB24
:102C30009FE09F938F930E94DC140F900F900F9052
:102C40000F900F900F9081E00F900F900F90DF91F9
:102C5000CF911F910F91FF90EF90DF90CF90BF9099
:102C6000AF909F908F907F906F905F904F903F902C
:102C70002F9008951F938F933F922F920E94DC1400
:102C80000F900F900F900F90B2CF7F926F9283EAC8
:102C90009FE09F938F930E94DC140F900F900F90F2
:102CA0000F9080E0D1CF462F6CE97FE00C949A150D
:102CB000EF92FF920F931F93CF93DF938091E207E0
:102CC000811156C08091C204811109C08091E3072F
:102CD000DF91CF911F910F91FF90EF900895F090A9
:102CE000F007E090F1070091BA071091BB07D801F7
:102CF000ED91FC910084F185E02DC091E807D09121
:102D0000E907B9E0E433FB07F1F5BE010D2E000C35
:102D1000880B990B0E94A14AF801268D378D40A19E
:102D200051A10E94564B0E94704A4091EE0750916B
:102D3000EF072091E307211123C028EE3CE0EF923A
:102D4000FF927F936F93DF93CF935F934F933F9364
:102D50002F9383EF9CE09F938F930E94DC14ADB779
:102D6000BEB71C960FB6F894BEBF0FBEADBFAECFB8
:102D700082E0DF91CF911F910F91FF90EF90089526
:102D80002FEE3CE0DCCFBE01C8011995BC01C0911B
:102D9000E807D091E907C9CF6F927F928F929F92F7
:102DA000AF92BF92CF92DF92EF92FF920F931F9359
:102DB000CF93DF938091B907882379F0DF91CF918A
:102DC0001F910F91FF90EF90DF90CF90BF90AF9049
:102DD0009F908F907F906F900895C091BA07D09187
:102DE000BB07E881F9810680F781E02D89E0E539AC
:102DF000F80709F0BBC08D81863308F0B1C020917F
:102E00007B00982F9870277F922B90937B00877080
:102E1000806480937C0080917A00806480937A0043
:102E200080917A0086FDFCCF809178000091790036
:102E3000102F082F8E818F3799F0E88DF98D8081C2
:102E40009A8D892369F4E885F98580819A8589239B
:102E500039F00115110509F4ABC01195019511095F
:102E6000E881F9810284F385E02D6091E607709195
:102E7000E70799E0E238F90709F074C090E080E0D4
:102E80000E949F4A2E8D3F8D48A159A10E94F7496B
:102E90000E94694AEB01C00FD11FD093E507C09390
:102EA000E4078091C204882309F488CF7090F80762
:102EB0006090F9079090F6078090F707E090BA07C6
:102EC000F090BB07D701ED91FC91A084B184B4E3ED
:102ED000AB16B9E0BB0609F051C0BE010D2E000CC7
:102EE000880B990B0E94A14AF701268D378D40A1CE
:102EF00051A10E94564B0E94704AD62EC72EB4E3B1
:102F0000AB16B9E0BB0609F04DC0B801012E000CAC
:102F1000880B990B0E94A14AF701268D378D40A19D
:102F200051A10E94564B0E94704A6F927F928F92DD
:102F30009F92CF92DF92DF93CF937F936F931F93F4
:102F40000F9380EA9CE09F938F930E94DC14ADB7AF
:102F5000BEB71E960FB6F894BEBF0FBEADBF2ECF44
:102F600086534DCFCE011995EC0195CFCE01199521
:102F70008C01C091BA07D091BB0772CFBE01C701C7
:102F8000F5011995D82EC92EC091E407D091E50717
:102F9000E090BA07F090BB07D701ED91FC91A084B7
:102FA000B184ADCFB801C701F5011995BC01BDCF02
:102FB0000FEF1FEF55CFFC012181283561F481E02F
:102FC0008093BD0483EE97E09F938F930E94DC145F
:102FD0000F900F90089501969F938F938EE098E045
:102FE0009F938F938091C5048F938091C4048F9396
:102FF0000E9493140F900F900F900F900F900F90CE
:1030000061E080E197E20C9453160F931F93CF93E6
:10301000DF93EC018091BA048823A1F08E858F9311
:103020008D858F938C858F938B858F9385EC97E01F
:103030009F938F930E94DC140F900F900F900F902E
:103040000F900F9010E000E08D859E85801791070E
:103050003CF08C819D810E949F0E0F5F1F4FF4CF2B
:103060001F868FEF9FEF9C878B87DF91CF911F91FA
:103070000F910895CF93DF93CDB7DEB71F928E8166
:103080008F9385E697E09F938F930E94DC14AE01A7
:10309000475F5F4F6F81788587E097E00E94AE12AF
:1030A00083E697E09F938F930E94DC140F900F901C
:1030B0000F900F900F900F90DF91CF9108954F9246
:1030C0005F926F927F92AF92BF92CF92DF92EF9218
:1030D000FF920F931F93CF93DF93CDB7DEB7A197E6
:1030E0000FB6F894DEBF0FBECDBF2091C3042F5F93
:1030F0002093C3049093C5048093C4041F922F931C
:1031000082E89FE09F938F930E94DC1441E064E08B
:103110007FE088EC90E00E949A150F900F900F903E
:103120000F90882311F18DEC9EE09F938F930E9466
:10313000DC140F900F9082E69FE09F938F93809115
:10314000C5048F938091C4048F930E94931461E00F
:1031500088EC90E00E9453160F900F900F900F9004
:1031600002E010E082E49FE039C388EC9EE09F9388
:103170008F938091C5048F938091C4048F930E9494
:10318000931461E088EC90E00E9453160F900F902A
:103190000F900F90811120C089E69FE09F938F933D
:1031A0000E94DC140F900F9010E000E0C801A1967F
:1031B0000FB6F894DEBF0FBECDBFDF91CF911F9148
:1031C0000F91FF90EF90DF90CF90BF90AF907F90E6
:1031D0006F905F904F90089581EC9EE09F938F9346
:1031E0008091C5048F938091C4048F930E9493149F
:1031F00061E080ED97E00E94531688EB9EE09F937C
:103200008F938091C5048F938091C4048F930E9403
:10321000931460E080ED97E00E9453168AEA9EE0E6
:103220009F938F938091C5048F938091C4048F9353
:103230000E94931461E088EE93E00E9453168EE999
:103240009EE09F938F938091C5048F938091C404D7
:103250008F930E94931461E080ED97E00E945316D3
:10326000B82E0FB6F894DEBF0FBECDBF8823D9F0BD
:103270008091C4049091C504DC01ED91FC9100841F
:10328000F185E02D1995892B71F08091C4049091FE
:10329000C504DC01ED91FC910284F385E02D1995C4
:1032A0000E94770EE5CF4DE050E063E27FE080E7DB
:1032B00092E00E9461491091C4040091C504892BD9
:1032C00059F04DE050E063E27FE08DE792E00E942C
:1032D0006149892B09F040C14DE050E06FE07FE08B
:1032E00080E792E00E946149892BE9F108EE13E042
:1032F0003DE0E32E3EE0F32EFF92EF928091C50475
:103300008F938091C4048F930E94931461E0C8014D
:103310000E9453160F900F900F900F90811106C0CE
:103320000C501E4F0436B9E11B0731F78091C404DD
:103330009091C504DC01ED91FC910084F185E02DB4
:1033400019956C01892B09F468C18091C40490918E
:10335000C504DC01ED91FC910284F385E02D199503
:103360000E94770EE3CF0E941B0C2B013C0120E44E
:10337000C22E2FE1D22EE12CF12C0E941B0C6419DD
:10338000750986099709683E734081059105A8F380
:10339000B1E0CB1AD108E108F108E8EE4E0EE3E007
:1033A0005E1E611C711CC114D104E104F10429F7F3
:1033B00083E99EE09F938F930F931F930E94931432
:1033C00040E066E87EE088E893E10E949A150F905D
:1033D0000F900F900F9040E06EE77EE0882309F495
:1033E00085CF88EE93E00E949A1581117FCF87E503
:1033F0009DE09F938F938091C5048F938091C40427
:103400008F930E94931461E088EE93E00E9453161C
:1034100089E49DE09F938F938091C5048F93809161
:10342000C4048F930E94931461E088EE93E00E949D
:1034300053160FB6F894DEBF0FBECDBF882309F434
:10344000C9C18AE08F931F9285E39DE09F938F937C
:103450008091C5048F938091C4048F930E9493142C
:1034600061E088EE93E00E9453160F900F900F904A
:103470000F900F900F90882309F4ACC18AE29DE071
:103480009F938F938091C5048F938091C4048F93F1
:103490000E94931440E065E27DE088EE93E00E9494
:1034A0009A150F900F900F900F90882309F492C1F6
:1034B00019A26E01F2E1CF0ED11C10E000E07601FE
:1034C0008091C4049091C504DC01ED91FC910084CD
:1034D000F185E02D1995892B99F38091C404909181
:1034E000C504DC01ED91FC910284F385E02D199572
:1034F0005C010E94770EB2E2AB16B10409F060C124
:10350000F701E00FF11F1082FF92EF9282E29DE03F
:103510009F938F9384E08F930E943A1860E088EE27
:1035200093E00E9453160F900F900F900F900F9002
:10353000882309F44FC18AE08F931F9289E19DE0AF
:103540009F938F9385E08F930E943A180F900F906E
:103550000F900F900F90EFCDBB20D9F18FE09FE03F
:103560009F938F9383E29FE09F938F9389E69EE0E2
:103570009F938F930F931F930E94931461E080E8B1
:103580009EE30E9453160FB6F894DEBF0FBECDBF68
:10359000882309F4ABCE80E39EE09F938F938091C4
:1035A000C5048F938091C4048F930E94931440E0CC
:1035B00063E27EE088E893E10E949A150F900F90F5
:1035C0000F900F90882309F491CE40E06BE17EE0EC
:1035D00008CF89E09FE09F938F9384E59EE09F93BF
:1035E0008F930F931F930E94931461E080ED97E0F7
:1035F0000E9453168FE09FE09F938F9383E29FE09A
:103600009F938F938BE39EE09F938F938091C5044C
:103610008F938091C4048F93AFCF82E09EE09F93FD
:103620008F938091C5048F938091C4048F930E94DF
:10363000931440E063EF7DE088E893E10E949A15DF
:103640000F900F900F900F908E010E5E1F4F8823EA
:1036500009F47FC0FE0131967F018091C4049091EE
:10366000C504DC01ED91FC910084F185E02D1995F4
:10367000892B99F38091C4049091C504DC01ED91EC
:10368000FC910284F385E02D1995F70181937F0168
:103690000E94770E0E151F0501F7188E8A858A8BFA
:1036A0008B858B8B8D858C8B8E858D8B88898E8B76
:1036B00089898F8B60E088EE93E00E9453168DE736
:1036C00092E0B11002C08EE792E0F82EE92EAA2413
:1036D000A3948AEA682E8DE0782E9CEC492E9DE01A
:1036E000592E4DE050E06FE07FE080E792E00E94CD
:1036F00061492091C4043091C504892B99F51F922A
:10370000AF921F930F931F930F93EF92FF925F92CD
:103710004F923F932F930E9493140FB6F894DEBFFD
:103720000FBECDBF61E080E89EE30E945316811179
:1037300026C09FEFC91AD90AA3E0CA16D10489F698
:103740008BE79DE09F938F930E94DC140F900F9066
:103750001AC041E150E066E670E0CE0101960E9499
:103760005E4C9BCF1F92AF928FE09FE09F938F9311
:103770001F930F93EF92FF927F926F92CACFB2E0A6
:10378000CB16D104E9F2B11032CE8AE08F931F92AA
:1037900088E69DE09F938F938091C5048F938091DD
:1037A000C4048F930E94931461E080ED97E00E941F
:1037B00053160F900F900F900F900F900F9017CE01
:1037C000F601A1926F010F5F1F4F0F30110509F035
:1037D00077CE9ACE01E010E085E39FE09F938F9330
:1037E0008CE49FE09F938F930E94DC140F900F90C6
:1037F0000F900F90DBCCCF93DF93EC012D853E85AE
:103800008A858823D9F03F932F938D818F938C8164
:103810008F9386E397E09F938F930E94DC148B85B0
:103820009C859F838E831A860F900F900F900F9028
:103830000F900F9080E0DF91CF9108958B859C854C
:103840002115310521F49F838E8381E0F4CF019609
:103850009C878B874C815D818417950711F41C86AA
:103860001B86AF85B8898B859C85A80FB91F3C93B3
:103870008B859C8501969C878B872C813D81821747
:10388000930711F41C861B86AF85B8898B859C85B0
:10389000A80FB91F8D858C93D8CF8091DB049091B0
:1038A000DC04009711F00E94FB1B1092DF040895C6
:1038B000CF93DF93EC01019721F4C091C604D0911E
:1038C000C7040E940910DF93CF932FED35E03F939B
:1038D0002F939F938F930E9493140F900F900F90AC
:1038E0000F900F900F90DF91CF910C944D1CCF93C0
:1038F000DF93EC010E940910DF93CF9328ED35E0B0
:103900003F932F939F938F930E9493140F900F9048
:103910000F900F900F900F90DF91CF910C944D1C52
:10392000CF92DF92EF92FF920F931F93CF93DF938B
:10393000D82EC92EE6ECF4E0F080E18014810581F8
:10394000C281D3810E940910CF92DF92EF92FF9241
:103950000F931F93DF93CF9329EC35E03F932F9381
:103960009F938F930E9493148DB79EB70C960FB6BA
:10397000F8949EBF0FBE8DBFDF91CF911F910F9125
:10398000FF90EF90DF90CF900C944D1C0F931F93FE
:10399000CF93DF93182F092FE6ECF4E0C081D1819B
:1039A0000E9409100F931F93DF93CF932FEB35E005
:1039B0003F932F939F938F930E9493148DB79EB73D
:1039C00008960FB6F8949EBF0FBE8DBFDF91CF91C2
:1039D0001F910F910C944D1CEF92FF920F931F9328
:1039E000CF93DF93F82EE92EE6ECF4E01281038109
:1039F000C081D1810E940910EF92FF920F931F9313
:103A0000DF93CF9322EB35E03F932F939F938F93D8
:103A10000E9493148DB79EB70A960FB6F8949EBF76
:103A20000FBE8DBFDF91CF911F910F91FF90EF904F
:103A30000C944D1CAF92BF92CF92DF92EF92FF9207
:103A40000F931F93CF93DF93C091CA04D091CB04FF
:103A5000019711F0CFEFDFEFB090C804A090C90438
:103A6000D090C604C090C704F090CE04E090CF047C
:103A70001091CC040091CD040E940910DF93CF93E4
:103A8000AF92BF92CF92DF92EF92FF920F931F936C
:103A900020EA35E03F932F939F938F930E949314D6
:103AA0008DB79EB70E960FB6F8949EBF0FBE8DBF12
:103AB000DF91CF911F910F91FF90EF90DF90CF900A
:103AC000BF90AF900C944D1CCF92DF92EF92FF927B
:103AD0000F931F93CF93DF93C091C804D091C90473
:103AE000019711F0CFEFDFEFD090C604C090C7046C
:103AF000F090CC04E090CD041091CA040091CB0466
:103B00000E940910DF93CF93CF92DF92EF92FF9242
:103B10000F931F9321E935E03F932F939F938F934A
:103B20000E9493148DB79EB70C960FB6F8949EBF63
:103B30000FBE8DBFDF91CF911F910F91FF90EF903E
:103B4000DF90CF900C944D1CAF92BF92CF92DF923A
:103B5000EF92FF920F931F93CF93DF93C82F8FB7EE
:103B6000F8944091BE045091BF046091C0047091DC
:103B7000C1048FBF80911A0890911B08A0911C0866
:103B8000B0911D08481B590B6A0B7B0B80911E08D6
:103B900090911F08B0E0A0E0481759076A077B071B
:103BA00070F58FB7F8944091BE045091BF046091B6
:103BB000C0047091C1048FBF8091D6079091D70740
:103BC000A091D807B091D907481B590B6A0B7B0B02
:103BD0008091DA079091DB07B0E0A0E04817590721
:103BE0006A077B0708F06CC0DF91CF911F910F919E
:103BF000FF90EF90DF90CF90BF90AF9008952FB7D8
:103C0000F8948091BE049091BF04A091C004B0913B
:103C1000C1042FBF80931A0890931B08A0931C081F
:103C2000B0931D08A091FE07B091FF0794960D91E7
:103C30001C9195978091FD07811109C08091910297
:103C4000811105C080919002882309F4B5C180914B
:103C50001908813009F42CC108F49EC0823009F0A3
:103C6000A8C181E080931908ED91FC911197019012
:103C7000F081E02D8FE0E938F80709F0AFC3CD01FE
:103C80000E94020F84E690E090931F0880931E0824
:103C90008091FD07811195C185E496E01F9224E68D
:103CA0002F939F938F938FE496E09F938F930E941F
:103CB000DC140F900F900F900F900F900F9071CF1A
:103CC0002FB7F8948091BE049091BF04A091C004D6
:103CD000B091C1042FBF8093D6079093D707A093CC
:103CE000D807B093D907A091BA07B091BB079496B3
:103CF0000D911C9195978091B90781110EC0C1114A
:103D00000CC080919102811108C0809190028111B4
:103D100004C000918E0210918F028091D5078130EE
:103D200009F441C090F1823009F0BFC081E0809376
:103D3000D507ED91FC9111970190F081E02D8FE076
:103D4000E938F80709F054C3CD010E94020F84E658
:103D500090E09093DB078093DA078091B907811197
:103D600033C185E496E01F9224E62F939F938F93AF
:103D70008FE496E09F938F930E94DC140F900F9036
:103D80000F900F900F900F902FCF88EE93E09093AD
:103D9000DB078093DA0728CF88EE93E090931F0823
:103DA00080931E08FECEED91FC9111970680F7815D
:103DB000E02D29E0E539F20709F014C315968C913E
:103DC0001597863308F003C120917B00982F9870D7
:103DD000277F922B90937B008770806480937C0078
:103DE00080917A00806480937A0080917A0086FDC9
:103DF000FCCF9091780080917900892798278927B6
:103E000016962C9116972F37D1F05896ED91FC917C
:103E1000599720815A963C915A97232381F41896FA
:103E2000ED91FC91199720811A963C911A972323C2
:103E300031F0009709F47DC2919581959109909395
:103E4000D0078093CF07A091BA07B091BB0797FD29
:103E500072C2801791070CF098C184E690E09093AD
:103E6000DB078093DA078091E0079091E1078436C1
:103E7000910508F4B0C08091DC079091DD07A09116
:103E8000DE07B091DF074597A105B10508F4ACCE78
:103E900084E190E0A0E0B0E08093DC079093DD0740
:103EA000A093DE07B093DF079FCE87EE93E06FCF3E
:103EB000ED91FC9111970680F781E02D29E0E5391D
:103EC000F20709F092C215968C911597863308F087
:103ED00080C020917B00982F9870277F922B909321
:103EE0007B008770806480937C0080917A0080647E
:103EF00080937A0080917A0086FDFCCF90917800C3
:103F00008091790089279827892716962C911697F2
:103F10002F37D1F05896ED91FC91599720815A9600
:103F20003C915A97232381F41896ED91FC911997AF
:103F300020811A963C911A97232331F0009709F4B7
:103F4000B3C19195819591099093140880931308BA
:103F5000A091FE07B091FF0797FDA8C180179107B8
:103F60000CF063C084E690E090931F0880931E08D5
:103F700080912408909125088436910590F18091D4
:103F8000200890912108A0912208B091230845971C
:103F9000A105B10508F405CE84E190E0A0E0B0E011
:103FA0008093200890932108A0932208B0932308BF
:103FB000F8CD87EE93E0F2CE00918E0210918F0241
:103FC00046CE8AE496E06ACE8AE496E0CCCE86536A
:103FD000FBCE86537ECF01969093E1078093E00756
:103FE00003CE01969093250880932408DACD809122
:103FF000FD07882309F434C286EC96E09F938F93E3
:104000008BEC96E09F938F930E94DC140F900F909F
:104010000F900F90809113089091140880179107CA
:1040200024F4109314080093130882E08093190875
:10403000A091FE07B091FF07ED91FC9111970190BF
:10404000F081E02D2FE0E938F20709F002C218965E
:10405000ED91FC91199780811B969C918923808317
:10406000E090FE07F090FF07D701ED91FC91A0844E
:10407000B1846091130870911408B4E3AB16B9E0F1
:10408000BB0609F0D7C1072E000C880B990B0E94C4
:10409000A14AF701268D378D40A151A10E94564BB0
:1040A0000E94704AD62FD72EB4E3AB16B9E0BB06F8
:1040B00009F0BAC1B801110F880B990B0E94A14AEF
:1040C000F701268D378D40A151A10E94564B0E94C9
:1040D000704A10922508109224088091200890912F
:1040E000210880931E0890931F082091FD0722232A
:1040F00009F471C12CE736E09F938F937F936F9300
:10410000DF92DF933F932F9381E896E09F938F9305
:104110000E94DC148091200890912108A09122082F
:10412000B09123082DB73EB7265F3F4F0FB6F894E6
:104130003EBF0FBE2DBF803137E29307A105B10509
:1041400008F43CC180E197E2A0E0B0E029CF809183
:10415000B907882309F48AC186EC96E09F938F9370
:104160008BEC96E09F938F930E94DC140F900F903E
:104170000F900F908091CF079091D00780179107F3
:1041800024F41093D0070093CF0782E08093D507E3
:10419000A091BA07B091BB07ED91FC9111970190E6
:1041A000F081E02D3FE0E938F30709F033C11896BC
:1041B000ED91FC91199780811B969C9189238083B6
:1041C000C091BA07D091BB07E881F981C084D1843E
:1041D0006091CF077091D007E4E3CE16E9E0DE06E8
:1041E00009F00AC1072E000C880B990B0E94A14A06
:1041F0002E8D3F8D48A159A10E94564B0E94704AB6
:10420000F62EE72EF4E3CF16F9E0DF0609F006C13B
:10421000B801110F880B990B0E94A14A2E8D3F8D7A
:1042200048A159A10E94564B0E94704A1092E10782
:104230001092E0078091DC079091DD078093DA0708
:104240009093DB072091B907222309F4C1C02CE722
:1042500036E09F938F937F936F93EF92FF923F93FC
:104260002F9381E896E09F938F930E94DC148091B6
:10427000DC079091DD07A091DE07B091DF072DB735
:104280003EB7265F3F4F0FB6F8943EBF0FBE2DBF1F
:10429000803137E29307A105B10508F494C080E1AD
:1042A00097E2A0E0B0E0F8CD8FEF9FEF9195819578
:1042B0009109909314088093130882E08093190861
:1042C000ED91FC9111970190F081E02D3FE0E938EC
:1042D000F30709F0F6C01896ED91FC9119978081CB
:1042E0001B969C91892380838091B004882309F4D4
:1042F0007ECE8091130890911408081719070CF0CE
:10430000B8C08091FD07882309F4ADC089EF96E01D
:104310009F938F938EEF96E09F938F930E94DC1470
:1043200080911308909114080F900F900F900F90A8
:1043300015CE8FEF9FEF9195819591099093D007BE
:104340008093CF0782E08093D507ED91FC91119780
:104350000190F081E02D3FE0E938F30709F0B5C0A6
:104360001896ED91FC91199780811B969C91892359
:1043700080838091B004882309F4E9CE8091CF072F
:104380009091D007081719070CF087C08091B907E2
:10439000882309F462C089EF96E09F938F938EEF94
:1043A00096E09F938F930E94DC148091CF079091A9
:1043B000D0070F900F900F900F904BCD880F991F43
:1043C000AA1FBB1FEDCD880F991FAA1FBB1F64CD6D
:1043D00027E736E03ECF27E736E08ECE61E0CD011D
:1043E000199550CCCD0119952ACDCD011995ACCD9B
:1043F00061E0CD011995ABCCCE01F6011995F82EEF
:10440000E92EC091BA07D091BB07E881F981C08439
:10441000D184F8CE60E0CD011995D2CEB801CE019D
:10442000F6011995BC0102CFB801C701F501199534
:10443000BC014FCEC701F5011995D82FD92EE090B8
:10444000FE07F090FF07D701ED91FC91A084B184A5
:104450002BCE60E0CD01199503CE84EF96E09DCF81
:1044600081EC96E0CBCD84EF96E052CF81EC96E0E4
:1044700075CE81E0809319088091FE079091FF0727
:10448000DC01ED91FC910190F081E02DBFE0E93875
:10449000FB0711F50E94020F34CF81E08093D5070E
:1044A0008091BA079091BB07DC01ED91FC910190DE
:1044B000F081E02DBFE0E938FB0759F40E94020FBC
:1044C00065CF60E0CD0119950FCF60E0CD01199562
:1044D00050CF61E019955ACF61E0199512CF0F9333
:1044E0001F93CF93DF938C01EB019093FF07809391
:1044F000FE077093BB076093BA07E881F9810284D5
:10450000F385E02D6AEF70E0CE01199590938F024C
:1045100080938E02109219088091FE079091FF07F8
:10452000DC01ED91FC910190F081E02D60E01995A6
:104530001092D5078091BA079091BB07DC01ED91ED
:10454000FC910190F081E02D60E01995F8018681E1
:104550009E818917E1F190E09093B004F801848D79
:10456000811106C0D80113968C918B508330A0F135
:104570001092920286EE95E09F938F930E94DC1436
:104580000F900F9088E297E290938D0280938C02B7
:10459000F89480917A00887F846080937A001092EA
:1045A000800080ED91E090938700809386001092C8
:1045B00085001092840081E18093810081E08093E6
:1045C0006F007894DF91CF911F910F91089591E042
:1045D0008F3709F0C1CFBFCF8C8D8111C9CF8B81AF
:1045E0008B50833028F681E0809392028EE196E032
:1045F000C3CFCF93DF93D82FC92F8091B8078823DB
:10460000B9F08091C204882341F084E092E09F9346
:104610008F930E94DC140F900F908091B80788232D
:1046200039F060E086EB97E00E94E60F1092B80741
:104630008091C204882361F0CF93DF9385EF91E0EE
:104640009F938F930E94DC140F900F900F900F9008
:10465000E0918A02F0918B028D2F9C2FDF91CF91F8
:104660001994AC01EEE1F3E090E080E022E330E069
:10467000608171816417750761F1672B21F4223322
:10468000310509F49C01019638968233910581F732
:10469000C9012233310559F484EE91E09F938F9341
:1046A0000E94DC140F900F908FEF9FEF0895FC0194
:1046B00023E0EE0FFF1F2A95E1F7E25EFC4F5183E6
:1046C000408320E822831382148215821682178287
:1046D00008952817390759F30895CF92DF92EF9282
:1046E000FF92CF93DF93C62FD42F0E94312397FDE3
:1046F00035C02C2F30E041E050E060E070E00C2E3F
:1047000004C0440F551F661F771F0A94D2F7E3E0D9
:10471000880F991FEA95E1F7FC01E25EFC4FC48027
:10472000D580E680F780DD2301F14C295D296E29D3
:104730007F294483558366837783C530F8F0C93079
:10474000F8F02D303105F4F025313105ECF428E096
:10475000FC01E25EFC4F8381282B2383DF91CF9104
:10476000FF90EF90DF90CF90089540955095609521
:1047700070954C215D216E217F21DBCF21E0E8CFB8
:1047800022E0E6CF24E0E4CF20E1E2CFCF92DF9237
:10479000EF92FF920F931F93CF93DF936C01C42F7F
:1047A000D0E0E22EF12CEC16FD0684F0062F10E08E
:1047B0001C141D0434F4462F41706C2FC6010E9456
:1047C0006D23B801759567952196EDCFDF91CF9157
:1047D0001F910F91FF90EF90DF90CF9008950E946E
:1047E000312397FD0DC023E0880F991F2A95E1F72B
:1047F000FC01E25EFC4F8281881F8827881F089594
:1048000080E008950E94312397FD0BC023E0880FBC
:10481000991F2A95E1F7FC01E25EFC4F82818F77B8
:1048200008958FEF08950F931F93CF938C016F77A7
:10483000C42FC795CC27C795C60F6C2F0E94881030
:104840000115110581F4EEE1F3E0CF7782818078E4
:104850008C2B8283389684E0EE3AF807B9F7CF9133
:104860001F910F910895C8010E94312397FDF7CF42
:1048700023E0880F991F2A95E1F7FC01E25EFC4FC7
:10488000C283EDCFFF920F931F93CF93DF93EC0181
:10489000F62E08811981C8010E946F49F81621F08F
:1048A0006F2DC8010E947749CE01DF91CF911F91F2
:1048B0000F91FF900895CF92DF92EF92FF920F93A6
:1048C0001F93CF93DF931F921F92CDB7DEB76C017A
:1048D0007C0110E000E01A830983F70161917F01F8
:1048E000CE0101960E9442240F5F1F4F0C3011052C
:1048F00091F7C6010F900F90DF91CF911F910F910B
:10490000FF90EF90DF90CF900895AF92BF92CF923B
:10491000DF92EF92FF920F931F93CF93DF931F923B
:104920001F92CDB7DEB78CE090E09093090380939F
:1049300008030091B1041091B204E0910A03F091D0
:104940000B03178216820115110581F1C09008032F
:10495000D0900903580186E0A80EB11C7801C01A56
:10496000D10AC6018E0D9F1D9A838983F70161913B
:104970007F01CE0101960E944224EA14FB0489F7CC
:104980008091080390910903069690930903809300
:104990000803F80106811781E0910A03F0910B03E7
:1049A00086819781019697838683CDCF00911B03E3
:1049B00010911C03E0910A03F0910B0311861086FD
:1049C0000115110581F1C0900803D0900903580129
:1049D000F4E0AF0EB11C7801C01AD10AC6018E0DE9
:1049E0009F1D9A838983F70161917F01CE01019612
:1049F0000E944224AE14BF0489F78091080390916D
:104A0000090304969093090380930803F801068133
:104A10001781E0910A03F0910B038085918501963F
:104A200091878087CDCF0091930210919402E091FD
:104A30000A03F0910B03138612860115110599F1F3
:104A4000C0900803D0900903F801D782C6825801AC
:104A5000F4E0AF0EB11C7801C01AD10AC6018E0D68
:104A60009F1D9A838983F70161917F01CE01019691
:104A70000E944224EA14FB0489F780910803909174
:104A8000090304969093090380930803F8010481B5
:104A90001581E0910A03F0910B03828593850196BD
:104AA00093878287CACF80910A0390910B030E945B
:104AB0005B240F900F90DF91CF911F910F91FF908A
:104AC000EF90DF90CF90BF90AF900895AF92BF92DC
:104AD000DF92EF92FF920F931F93CF93DF93FC012E
:104AE000462F8281662309F4B9C0806882831281CF
:104AF000E480F58016FF19C1D0E0C0E0442321F026
:104B0000C3810C2E000CDD0B212F2F73D22EB22E61
:104B1000B2948FE0B8228091960290E00B2C02C0F4
:104B2000959587950A94E2F780FD8DC08091950256
:104B300090E00B2C02C0959587950A94E2F700E46B
:104B40000B0D80FDA6C08091B007811119C0109295
:104B5000B8021092B70210920D0510922F050E9414
:104B6000670C8DE89DE09093DB028093DA028EE87B
:104B70009DE09093DF028093DE0281E08093B00796
:104B80008091B2079091B307A091B407B091B50797
:104B900081349244AF40B10590F08091B10781110A
:104BA0000EC080E492E4AFE0B0E08093B20790934F
:104BB000B307A093B407B093B5071092B8008091E3
:104BC000B007811115C01092B8021092B7020E946E
:104BD000670C8DE89DE09093DB028093DA028EE80B
:104BE0009DE09093DF028093DE0281E08093B00726
:104BF00081E080930C0500932E0510920D05109214
:104C00002F050E94A60C21E030E0A90102C0440F4C
:104C1000551FBA94E2F75A01882311F11F928F931E
:104C20001F920F938BE797E09F938F930E94DC1462
:104C300080919602A82AA09296020F900F900F9052
:104C40000F900F900F90DF91CF911F910F91FF90D8
:104C5000EF90DF90BF90AF900C9485248F7746CF74
:104C600040E360E0802F0E94EB0E49E76EEF802F5B
:104C70000E94EB0E40E260E0802F0E94EB0E40EAC3
:104C800060E0802F0E94EB0E80919502A82AA092EE
:104C90009502CE0DDF1DDF93CF931F92DF9284EB41
:104CA00097E09F938F930E94DC1481E080930C0522
:104CB00000932E0510920D0510922F051F7024E011
:104CC000129FB00111246A5F7F4F84EA97E00E942F
:104CD000E60D60E084EA97E00E94E60D60E084EA79
:104CE00097E00E94E60D6C2F84EA97E00E94E60DA3
:104CF0006D2F84EA97E00E94E60D0E94A60C0F90AB
:104D00000F900F900F900F900F90882309F49BCF76
:104D10001F928F9380EA97E09F938F930E94DC14F9
:104D20000F900F900F900F908ECF6381C7010E945C
:104D30001D1089CFCF93DF931F92CDB7DEB7FC0153
:104D4000258521114CC040892785DC01A40FB11DA8
:104D5000E22FF0E0E55EFD4F16963C915081352341
:104D600059F432E0FC01318B2F5F293059F027874D
:104D70000F90DF91CF91089531E0FC01318B2F5FCF
:104D80002930A9F717864F5F408B2385421780F3A0
:104D9000108A268525872485211149C02081DC01C0
:104DA0001696211147C0238148E152E0211102C02B
:104DB00045E152E0FA0120813181FC0137832683ED
:104DC000FA01228112962C9323E0FC01238714869A
:104DD00021812A3F68F621812F5F2183C9CF31E0ED
:104DE000318B215025872091740830917508CE01B0
:104DF000019621153105B1F0821B930B4697209146
:104E00000002309101028217930724F4909301026B
:104E10008093000280910002909101020F90DF9137
:104E2000CF9108952091050230910602E5CF2150DF
:104E300024879ECF729625E001900D922A95E1F786
:104E4000FC0127892387208D24871082118290CF2F
:104E5000CF9390910B08E92FF0E0E15FFD4F608167
:104E600080919102C62F811106C0E091C707F0E042
:104E7000E15FFD4FC081A091FE07B091FF07ED916A
:104E8000FC9111970280F381E02D8FE0ED31F8075E
:104E900009F046C180919202811117C11C96ED91D3
:104EA000FC911D978081662309F448C01E969C9151
:104EB0001E97892B80835C968C915C9781116CC1C5
:104EC000A091BA07B091BB07ED91FC9111970280B8
:104ED000F381E02D8FE0ED31F80709F00FC11C964A
:104EE000ED91FC911D978081CC2309F4D9C01E96C9
:104EF0009C911E97892B80835C968C915C97811185
:104F000041C190910B08E92FF0E0E75FFD4F9081E0
:104F100090930B08E091C707F0E0E75FFD4F8081B9
:104F20008093C707953009F4EDC0853009F4F3C0CC
:104F30008091E207811117C0CF9108951F969C912F
:104F40001F97892380835C968C915C97882309F452
:104F5000B7CF5096ED91FC915197808152969C91DC
:104F6000892B8083ADCF8091B707873008F01EC1B1
:104F7000A091BA07B091BB07ED91FC911197068003
:104F8000F781E02D89E0E539F80709F0C2C11596EF
:104F90009C911597963308F0965320917B00892FAA
:104FA0008870277F822B80937B009770906490930A
:104FB0007C0080917A00806480937A0090917A00DE
:104FC00096FDFCCF809178009091790016962C91F7
:104FD00016972F37C9F05896ED91FC91599720817B
:104FE0005A963C915A97232379F41896ED91FC91A7
:104FF000199720811A963C91232331F0009709F4E8
:10500000A8C19195819591092091E8073091E90710
:105010002817390724F49093E9078093E807409113
:10502000F2075091F3076091F4077091F507209112
:10503000E4073091E507281739070CF0E0C0452B4D
:10504000462B472B09F078CF3FB7F89480910203A5
:1050500090910303A0910403B091050326B5A89B8A
:1050600005C02F3F19F00196A11DB11D3FBFBA2FFA
:10507000A92F982F8827820F911DA11DB11D880F80
:10508000991FAA1FBB1F880F991FAA1FBB1F8093C0
:10509000F2079093F307A093F407B093F5074CCF72
:1050A0001F969C911F97892380835C968C915C97B7
:1050B000882309F426CF5096ED91FC915197808179
:1050C00052969C91892B80831CCF13968C918B30A8
:1050D00009F485C08C3009F4ECC08D3009F409C1A5
:1050E000A091BA07B091BB07ED91FC911197028096
:1050F000F381E02D8FE0ED31F80749F16C2FCD0100
:105100001995FFCE8AEF97E00E949A268091C707F3
:10511000853009F00DCF86EB97E0CF910C949A265D
:10512000CD011995A091BA07B091BB07ED91FC9103
:1051300011970280F381E02D8FE0ED31F807F1F651
:1051400080919202882309F4CACE90910B0813969D
:105150008C918B3009F49DC08C3009F4BAC08D302D
:1051600009F0D1CE8091800088608093800020E09B
:1051700034E0C11102C030E020E030938D00209374
:105180008C00C1CE5096ED91FC9151978081539641
:105190009C9189238083B5CE5096ED91FC915197D7
:1051A000808153969C91892380838ACE2FB7F8946F
:1051B0008091BE049091BF04A091C004B091C1043D
:1051C0002FBF2091EA073091EB07821B930B90933E
:1051D000EF078093EE071092E207CF910895809138
:1051E000800080688093800080E094E0611102C0BC
:1051F00090E080E0909389008093880093CF452BC6
:10520000462B472B09F498CE3FB7F89480910203C0
:1052100090910303A0910403B091050326B5A89BC8
:1052200005C02F3F19F00196A11DB11D3FBFBA2F38
:10523000A92F982F8827820F911DA11DB11D880FBE
:10524000991FAA1FBB1F880F991FAA1FBB1F209160
:10525000F2073091F307821B930B9093F107809331
:10526000F0072091F6073091F7078217930740F077
:105270002091F8073091F9072817390708F04CC03A
:105280001092F2071092F3071092F4071092F507AC
:1052900053CE8091800080688093800020E034E0CD
:1052A000C11102C030E020E03093890020938800D3
:1052B0002ACE8091800080628093800080E094E01C
:1052C000611102C090E080E090938B0080938A008F
:1052D00029CF8091800080628093800020E034E0BC
:1052E000C11102C030E020E030938B0020938A008F
:1052F0000ACE8091800088608093800080E094E0F6
:10530000611102C090E080E090938D0080938C004A
:1053100009CFCD01199578CE2FB7F8948091BE04AE
:105320009091BF04A091C004B091C1042FBF2091FF
:10533000EA073091EB07821B930B9093EF07809362
:10534000EE0781E08093E3071092E2071092C20714
:10535000F3CD8FEF9FEF58CE3F924F925F926F92B7
:105360007F928F929F92AF92BF92CF92DF92EF92F5
:10537000FF920F931F93CF93DF93CDB7DEB76B9759
:105380000FB6F894DEBF0FBECDBF062FF72EE42E6A
:10539000152F59012DB73EB73B8F2A8F80911D03E2
:1053A000882361F05F934F9384E895E09F938F93F8
:1053B0000E94DC140F900F900F900F90EE2DF12FA4
:1053C0004F01108131961C33D9F31032C9F31A8280
:1053D00019821C821B821E821D8218861F821A86D9
:1053E00019861C861B861E861D86188A1F861A8AA9
:1053F000198A1C8A1B8A3F01D12C90E080E051E081
:10540000E12C7AE0C72ED3014C91523009F470C0E0
:10541000533009F478C0513009F071C0403209F4BA
:105420006EC0442319F04E3309F055C0CE2CD12C58
:10543000123509F45BC608F022C1123409F429C6FA
:1054400008F0DEC01B3211F40C941C3308F09BC032
:10545000112309F49CC2133211F40C94DD32DF9253
:10546000CF921F921F9383E894E09F938F930E94A3
:10547000DC149E012F5F3F4F49010F900F900F905A
:105480000F900F900F90B12CA12C82E7682E84E032
:10549000782EAC14BD0409F420C2D4018C9111966D
:1054A0009C91B2E08B0E911C9F938F939F938F934F
:1054B000BF92AF927F926F920E94DC14EFEFAE1A10
:1054C000BE0A2DB73EB7285F3F4F0FB6F8943EBFD8
:1054D0000FBE2DBFDECF52E03AE0E31294CFAAE038
:1054E000CA2ED12CA5CFD12C90E080E053E0F4CF90
:1054F0004D32C9F7DD24D39490E080E053E0BFEF54
:105500006B1A7B0AE9CF20ED240F2A3060F4C89E85
:105510009001C99E300D1124642F6053770BCB018D
:10552000820F931FECCF2FE9240F2A3108F4405249
:105530002FEB240F2A3150F49C0165E0220F331F1A
:105540006A95E1F7820F931F8427D9CF2FEF3FEFA2
:10555000D11002C021E030E06E2D70E0660F771FA1
:10556000A1E0B0E0AC0FBD1F6A0F7B1F289FA00118
:10557000299F500D389F500D1124DB014D935C93F2
:10558000E39451E0A9CF80ED810F823008F067CF1E
:1055900021E02E1508F4A1C1DD24D394113309F0C4
:1055A000D12C809102028F3719F060E00E94BC0B71
:1055B00010929102EE2059F089819A812091B004D5
:1055C000222309F4D2C5823E974809F4DAC56D2D2D
:1055D0008AEF97E00E94E60F6D2D86EB97E00E9420
:1055E000E60F113311F0109290021F921F9387E57E
:1055F00095E09F938F93FF920F930E94931492C70D
:10560000163409F4E0C7D8F4143409F4A7C61534E5
:1056100009F025CF0E948524E0910A03F0910B0345
:1056200083858F9382858F9381858F9380858F93D8
:1056300087818F9386818F9382EC94E076C11035B9
:1056400029F008F086C61D3409F009CF1A821982A4
:105650001C821B821E821D8218861F821A86198652
:105660001C861B861E861D86188A1F861A8A198A22
:105670001C8A1B8A30E020E040E051E0D7C312369C
:1056800009F493C308F07BC0163509F4B0C408F0E0
:1056900051C0133509F4E0C2143509F0E0CE91E0B1
:1056A000C916D10409F4FCC10CF0DFC1CD2809F002
:1056B00014C1C090B104D090B20480E09BE2A92E46
:1056C00092E0B92EC114D10409F4C3C2D6011296D6
:1056D0008C911297082E000C990B892F881F882710
:1056E000881F1F928F9313968C9113971F928F93FD
:1056F00015968C9115978F9314968C9114978F9380
:1057000011968C9111978F938C918F93BF92AF923A
:10571000FF920F930E949314F601C680D78081E018
:105720002DB73EB7245F3F4F0FB6F8943EBF0FBE74
:105730002DBFC8CF1A3509F405C2113609F459C175
:10574000173509F08CCEA501BE016F5F7F4F802F0A
:105750009F2D0E94AC08882309F4BFC089819A81DB
:1057600071E0E71232C49C01215031092F3F3742CA
:1057700008F40FC48FEF9FEF0E94581C08C1163623
:1057800009F4E3C010F5133609F431C5153609F0F4
:1057900066CEC0900A03D0900B0363E872E0C601A6
:1057A0000E94654CD60117961C921E921697199668
:1057B0001C921E9218971B961C921E921A97C60155
:1057C0000E945B248EEB94E065C7143709F46DC02A
:1057D000173709F4ABC2133709F041CE8AEF97E0CF
:1057E0000E94061091E0813009F090E01F929F9393
:1057F00080E095E09F938F93FF920F930E94931404
:105800008FEC94E09F938F938091AF048F9380915E
:10581000AE048F9387ED94E09F938F938CED94E08B
:105820009F938F9382EE94E09F938F93FF920F93B9
:105830000E949314C090B104D090B2042DB73EB72B
:105840002E5E3F4F0FB6F8943EBF0FBE2DBF66EBE6
:10585000A62E63E0B62EC114D10409F454C5D601B6
:1058600012968C911297082E000C990B892F881F85
:105870008827881F1F928F9311968C9111978F9371
:105880008C918F93BF92AF92FF920F930E949314CB
:10589000F601C680D7802DB73EB7285F3F4F0FB6C1
:1058A000F8943EBF0FBE2DBFD6CFE4E0EE1218C075
:1058B0008B819C816D817E814F8158859B012F5FFB
:1058C0003F4F2038310548F46F3F760799F0611556
:1058D000710591F0B901009779F48EE694E0DAC68B
:1058E000F3E0EF12FACF89819A816B817C814D813F
:1058F0005E81E4CF61E070E04230510570F74170A5
:105900000E94132424E083E795E0E212C3C6888551
:105910008F938F818F938E818F938D818F938A81C7
:105920008F9389818F9387E795E09F938F93FF9261
:105930000F930E9493144DB75EB7465F5F4F0FB64B
:10594000F8945EBF0FBE4DBF22C052E0C516D10411
:10595000E9F56B817C81862F807E803861F4CB01F4
:10596000880F991F8E7162956170682B24E040E06A
:1059700089819A810AC0803A51F489819A812CE008
:1059800049E064FF02C028E045E00E94C6230A8D7A
:105990001B8D0FB6F8941EBF0FBE0DBF6B960FB6D2
:1059A000F894DEBF0FBECDBFDF91CF911F910F9155
:1059B000FF90EF90DF90CF90BF90AF909F908F902F
:1059C0007F906F905F904F903F90089563E0C61670
:1059D000D104E9F68B819C818E3D910521F424E16F
:1059E0004DE06D81C5CF2CE145E18F3D910579F604
:1059F000F8CF72E0E71231C089819A8101979C014A
:105A000097FF02C02D5F3F4F359527953595279518
:105A10002F5F3F4F64E070E00E94C84B682FE1E0C9
:105A2000C90191708217930709F057CF862F8370B1
:105A3000681353CFF0E0EE0FFF1FEC0FFD1F418105
:105A40005281CA01817099274817590709F045CF3B
:105A50004170C9010E941D109ACF83E0E8123DCF2A
:105A600029813A816B81E2E0DBCFB2E0CB16D10431
:105A7000A1F1E3E0CE16D10409F02FCF1D81CB8038
:105A8000DC8089819A810E94C610FC01D582C48283
:105A90001383128289E192E0EF2B09F0FBC51DCF41
:105AA00049815A812091B1043091B204F901B0E0EA
:105AB000A0E0309709F411CF6081718186819781D0
:105AC0004617570709F4D0C5DF01FC01F2CF16963F
:105AD0008C93169717969C93CFC589819A810E94C3
